{"abi":[{"type":"constructor","inputs":[],"stateMutability":"nonpayable"},{"type":"function","name":"JURY_SIZE","inputs":[],"outputs":[{"name":"","type":"uint256","internalType":"uint256"}],"stateMutability":"view"},{"type":"function","name":"TIMEOUT_WINDOW","inputs":[],"outputs":[{"name":"","type":"uint256","internalType":"uint256"}],"stateMutability":"view"},{"type":"function","name":"addMockJuror","inputs":[{"name":"_juror","type":"address","internalType":"address"}],"outputs":[],"stateMutability":"nonpayable"},{"type":"function","name":"adminResolveDispute","inputs":[{"name":"_matchId","type":"uint256","internalType":"uint256"},{"name":"_winner","type":"address","internalType":"address"}],"outputs":[],"stateMutability":"nonpayable"},{"type":"function","name":"claimTimeoutVictory","inputs":[{"name":"_matchId","type":"uint256","internalType":"uint256"}],"outputs":[],"stateMutability":"nonpayable"},{"type":"function","name":"createMatch","inputs":[{"name":"_wagerAmount","type":"uint256","internalType":"uint256"},{"name":"_bondAmount","type":"uint256","internalType":"uint256"}],"outputs":[],"stateMutability":"payable"},{"type":"function","name":"joinMatch","inputs":[{"name":"_matchId","type":"uint256","internalType":"uint256"}],"outputs":[],"stateMutability":"payable"},{"type":"function","name":"juryVote","inputs":[{"name":"_matchId","type":"uint256","internalType":"uint256"},{"name":"_vote","type":"uint8","internalType":"enum SkillWager.Result"}],"outputs":[],"stateMutability":"nonpayable"},{"type":"function","name":"matchIdCounter","inputs":[],"outputs":[{"name":"","type":"uint256","internalType":"uint256"}],"stateMutability":"view"},{"type":"function","name":"matches","inputs":[{"name":"","type":"uint256","internalType":"uint256"}],"outputs":[{"name":"id","type":"uint256","internalType":"uint256"},{"name":"playerA","type":"address","internalType":"address"},{"name":"playerB","type":"address","internalType":"address"},{"name":"wagerAmount","type":"uint256","internalType":"uint256"},{"name":"bondAmount","type":"uint256","internalType":"uint256"},{"name":"state","type":"uint8","internalType":"enum SkillWager.MatchState"},{"name":"resultA","type":"uint8","internalType":"enum SkillWager.Result"},{"name":"resultB","type":"uint8","internalType":"enum SkillWager.Result"},{"name":"lastActionTimestamp","type":"uint256","internalType":"uint256"},{"name":"votesForA","type":"uint256","internalType":"uint256"},{"name":"votesForB","type":"uint256","internalType":"uint256"},{"name":"cancelVoteA","type":"bool","internalType":"bool"},{"name":"cancelVoteB","type":"bool","internalType":"bool"}],"stateMutability":"view"},{"type":"function","name":"mockJurors","inputs":[{"name":"","type":"uint256","internalType":"uint256"}],"outputs":[{"name":"","type":"address","internalType":"address"}],"stateMutability":"view"},{"type":"function","name":"owner","inputs":[],"outputs":[{"name":"","type":"address","internalType":"address"}],"stateMutability":"view"},{"type":"function","name":"renounceOwnership","inputs":[],"outputs":[],"stateMutability":"nonpayable"},{"type":"function","name":"submitResult","inputs":[{"name":"_matchId","type":"uint256","internalType":"uint256"},{"name":"_result","type":"uint8","internalType":"enum SkillWager.Result"}],"outputs":[],"stateMutability":"nonpayable"},{"type":"function","name":"transferOwnership","inputs":[{"name":"newOwner","type":"address","internalType":"address"}],"outputs":[],"stateMutability":"nonpayable"},{"type":"function","name":"voteToCancel","inputs":[{"name":"_matchId","type":"uint256","internalType":"uint256"}],"outputs":[],"stateMutability":"nonpayable"},{"type":"function","name":"withdrawPreMatch","inputs":[{"name":"_matchId","type":"uint256","internalType":"uint256"}],"outputs":[],"stateMutability":"nonpayable"},{"type":"event","name":"DisputeStarted","inputs":[{"name":"matchId","type":"uint256","indexed":true,"internalType":"uint256"}],"anonymous":false},{"type":"event","name":"JuryVoted","inputs":[{"name":"matchId","type":"uint256","indexed":true,"internalType":"uint256"},{"name":"juror","type":"address","indexed":true,"internalType":"address"},{"name":"vote","type":"uint8","indexed":false,"internalType":"enum SkillWager.Result"}],"anonymous":false},{"type":"event","name":"MatchCancelled","inputs":[{"name":"matchId","type":"uint256","indexed":true,"internalType":"uint256"}],"anonymous":false},{"type":"event","name":"MatchCreated","inputs":[{"name":"matchId","type":"uint256","indexed":true,"internalType":"uint256"},{"name":"playerA","type":"address","indexed":true,"internalType":"address"},{"name":"wager","type":"uint256","indexed":false,"internalType":"uint256"},{"name":"bond","type":"uint256","indexed":false,"internalType":"uint256"}],"anonymous":false},{"type":"event","name":"MatchJoined","inputs":[{"name":"matchId","type":"uint256","indexed":true,"internalType":"uint256"},{"name":"playerB","type":"address","indexed":true,"internalType":"address"}],"anonymous":false},{"type":"event","name":"MatchResolved","inputs":[{"name":"matchId","type":"uint256","indexed":true,"internalType":"uint256"},{"name":"winner","type":"address","indexed":true,"internalType":"address"}],"anonymous":false},{"type":"event","name":"OwnershipTransferred","inputs":[{"name":"previousOwner","type":"address","indexed":true,"internalType":"address"},{"name":"newOwner","type":"address","indexed":true,"internalType":"address"}],"anonymous":false},{"type":"event","name":"ResultSubmitted","inputs":[{"name":"matchId","type":"uint256","indexed":true,"internalType":"uint256"},{"name":"player","type":"address","indexed":true,"internalType":"address"},{"name":"result","type":"uint8","indexed":false,"internalType":"enum SkillWager.Result"}],"anonymous":false},{"type":"error","name":"OwnableInvalidOwner","inputs":[{"name":"owner","type":"address","internalType":"address"}]},{"type":"error","name":"OwnableUnauthorizedAccount","inputs":[{"name":"account","type":"address","internalType":"address"}]},{"type":"error","name":"ReentrancyGuardReentrantCall","inputs":[]}],"bytecode":{"object":"0x6080806040523461007c5760015f5533156100675760018054336001600160a01b03198216811790925560405191906001600160a01b03167f8be0079c531659141344cd1fd0a4f28419497f9722a3daafe3b4186f6b6457e05f80a36116f390816100818239f35b631e4fbdf760e01b81525f6004820152602490fd5b5f80fdfe604060808152600480361015610013575f80fd5b5f91823560e01c80631318e27b14610eff5780631e01fc2f14610d135780631f7e507e14610a9d5780634768d4ef146109a55780634fdc2fb4146109865780635a8fe26f14610914578063715018a6146108b75780637ca23b941461089a57806389054ecb146106c85780638da5cb5b1461069f5780638e9836b6146105925780638f52d9d41461054f578063afaec5271461052f578063eff53a6914610334578063f2fde38b146102a9578063f5a0ea6c146101fb5763feb8c438146100d8575f80fd5b60203660031901126101f7578135916100ef6113e6565b828452600360205260ff600583862001541660068110156101e4576101149015611407565b82845260036020528184209160018060a01b0360018401541633146101a9575061014a6101519160038401549084015490611374565b3414611395565b60028101336001600160601b0360a01b82541617905560058101600160ff1982541617905560064291015533907f50d6e5d288766a7340b6110b6738cac822c48c128a47399df2fad303041f8d508380a36001815580f35b906020606492519162461bcd60e51b83528201526015602482015274086c2dcdcdee840d4ded2dc40deeedc40dac2e8c6d605b1b6044820152fd5b634e487b7160e01b855260218252602485fd5b8280fd5b5090816003193601126101f7577fab8c9f12c79b09660cc1e067055451fdf910f3c9bf0349316c5bd5dd14619acc8135926024356102376113e6565b61024461014a8287611374565b60025493610251856113d8565b6002558487526003602052818388209186835560018301336001600160601b0360a01b8254161790558760038401558201556005810160ff198154169055600642910155815194855260208501523393a36001815580f35b5090346101f75760203660031901126101f7576102c46112d4565b906102cd611348565b6001600160a01b0391821692831561031e575050600154826001600160601b0360a01b821617600155167f8be0079c531659141344cd1fd0a4f28419497f9722a3daafe3b4186f6b6457e08380a380f35b51631e4fbdf760e01b8152908101849052602490fd5b5090346101f75760208060031936011261052b578135928385526003825280852061037960018060a01b03918280600183015416331491821561051a575b5050611443565b8486526003835260ff600583882001541660068110156104a057600161039f9114611407565b8486526003835281862090600682015461012c8101809111610507574211156104ce57600560ff91600184015416331492835f146104bf57828282015460081c16935b156104b357015460101c16905b60038110156104a0576001036104675760038110156104545761041a5784610417338661147e565b80f35b5162461bcd60e51b815291820152601660248201527513dc1c1bdb995b9d08185b1c9958591e481858dd195960521b604482015260649150fd5b634e487b7160e01b865260218452602486fd5b505162461bcd60e51b8152918201526014602482015273135d5cdd0818db185a5b481dda5b88199a5c9cdd60621b604482015260649150fd5b634e487b7160e01b875260218552602487fd5b015460081c16906103ef565b828282015460101c16936103e2565b50505162461bcd60e51b8152918201526013602482015272151a5b595bdd5d081b9bdd081c995858da1959606a1b604482015260649150fd5b634e487b7160e01b885260118652602488fd5b60029192500154163314825f610372565b8380fd5b83823461054b578160031936011261054b576020905160038152f35b5080fd5b50823461058f57602036600319011261058f578235925483101561058f57506105796020926112ea565b905491519160018060a01b039160031b1c168152f35b80fd5b50346101f75760203660031901126101f7578135916105af6113e6565b828452600360205260ff600583862001541660068110156101e4576105d49015611407565b828452600360205281842060018101546001600160a01b0316913383900361066d5785809361061e848395946005859601600560ff19825416179055600382015491015490611374565b90828215610664575bf11561065957507f700135b4fe8746e2d2c85a9baa43c62887740aebfeb3a439f71a083fe5d567598280a26001815580f35b51913d9150823e3d90fd5b506108fc610627565b606490602085519162461bcd60e51b8352820152600c60248201526b27b7363c9031b932b0ba37b960a11b6044820152fd5b83823461054b578160031936011261054b5760015490516001600160a01b039091168152602090f35b5082903461054b578060031936011261054b576001600160a01b03602435818116928535929091849003610896576106fe611348565b82855260036020528185209060058201805460ff811660068110156108835760028114908115610878575b5015610844578260018501541687148015610835575b1561080157889060ff19161790556003820154918260011b92808404600214901517156107ee57908680808061077b8c82989701548097611374565b8a8282156107e5575bf1156107db578280928192600154168282156107d2575bf1156107c957507f1c560e9f349cd346794f9d534fb852628d58cc7a726d0adb57820fae0a50cd478380a380f35b513d84823e3d90fd5b506108fc61079b565b83513d84823e3d90fd5b506108fc610784565b634e487b7160e01b875260118852602487fd5b845162461bcd60e51b81526020818b0152600e60248201526d24b73b30b634b2103bb4b73732b960911b6044820152606490fd5b5082600285015416871461073f565b845162461bcd60e51b81526020818b0152600e60248201526d4e6f7420696e206469737075746560901b6044820152606490fd5b60039150148a610729565b634e487b7160e01b895260218a52602489fd5b8480fd5b83823461054b578160031936011261054b576020905161012c8152f35b833461058f578060031936011261058f576108d0611348565b600180546001600160a01b0319811690915581906001600160a01b03167f8be0079c531659141344cd1fd0a4f28419497f9722a3daafe3b4186f6b6457e08280a380f35b82843461058f57602036600319011261058f5761092f6112d4565b610937611348565b8254600160401b81101561097357600181018455610954906112ea565b819291549060031b9160018060a01b03809116831b921b191617905580f35b634e487b7160e01b835260418452602483fd5b83823461054b578160031936011261054b576020906002549051908152f35b50823461058f57602036600319011261058f5782358152600360205281812080549260018060a01b03928360018401541693600284015416906003840154878501549160058601549260ff841692600688015495600989015497600b600a8b01549a01549a81519c8d5260208d01528b015260608a015260808901526006821015610a8a576101a08860ff89898989610a5f8a8a60a0890152610a5060c08901888360081c166112b3565b8660e089019160101c166112b3565b610100860152610120850152610140840152818116151561016084015260081c161515610180820152f35b634e487b7160e01b815260218952602490fd5b5090346101f757610aad36611290565b81859392935260206003815260ff60058688200154166006811015610d00576002610ad89114611407565b8386526003815284862094610aed33866115b6565b15610cd1576008860133885280835260ff82892054166003811015610c8b57610c9e5760038410159081610c8b5760018514808015610c7e575b15610c4c5782610c395715610c185760098801610b4481546113d8565b90555b338952835281882090610c055791610b917f8ed593b386877faf4c9856297fea257c8cee329002d75c2fea35240030c9c54992879460ff1981541660ff88161790555180956112b3565b3393a3600783015460011c9060018201809211610bf2575060098301548111610bcb5750610417916001808060a01b039101541690611618565b600a8301541015610bdb57505080f35b61041791600260018060a01b039101541690611618565b634e487b7160e01b855260119052602484fd5b634e487b7160e01b885260218552602488fd5b8891506001198501610b4757600a8801610c3281546113d8565b9055610b47565b634e487b7160e01b8a526021875260248afd5b835162461bcd60e51b8152808801869052600c60248201526b496e76616c696420766f746560a01b6044820152606490fd5b5089925060028614610b27565b634e487b7160e01b895260218652602489fd5b815162461bcd60e51b8152808601849052600d60248201526c105b1c9958591e481d9bdd1959609a1b6044820152606490fd5b5162461bcd60e51b81529283015250600b60248201526a2737ba103090353ab937b960a91b6044820152606490fd5b634e487b7160e01b875260218452602487fd5b50346101f75760203660031901126101f757813591828452600360205281842090610d5760018060a01b039283806001830154163314918215610eee575050611443565b8385526003602052828520916005830160ff8154166006811015610edb5760018114908115610ed0575b5015610e99579083929160018895018281541633145f14610e8357600b8501805460ff191660011790555b600b85015460ff81169081610e75575b50610dc5578580f35b8291600560ff19825416179055541692848080806003850197610def895498870198895490611374565b90828215610e6c575bf115610e625792610e19859493859493600286950154169254905490611374565b90828215610e59575bf11561065957507f700135b4fe8746e2d2c85a9baa43c62887740aebfeb3a439f71a083fe5d567598280a25f808281808080808580f35b506108fc610e22565b85513d86823e3d90fd5b506108fc610df8565b60ff915060081c165f610dbc565b600b8501805461ff001916610100179055610dac565b845162461bcd60e51b8152602081850152601160248201527043616e6e6f742063616e63656c206e6f7760781b6044820152606490fd5b60029150145f610d81565b634e487b7160e01b885260218452602488fd5b60029192500154163314835f610372565b50346101f757610f0e36611290565b9290918285526003916020928084528287209260018060a01b0394610f4660019587808883015416331491821561127f575050611443565b86895282815260ff97886005848c2001541660068110156111f25786610f6c9114611407565b878a52838252828a20908481101580611205578782148015611273575b1561123f5788888401541633145f1461121857600583019061120557805461ff001916600883901b61ff0016179055600591905b610fc9855180926112b3565b897f099c976edcaeebeac7aa3492983b6a1e1e59890b5b38376529ba0e35427fdc1e853393a34260068201550154888160081c16848110156111f2578990151591826111c8575b505061101a578880f35b868952828152818920976005890190815490808260081c16868110156111b5578881148061118b575b1561106957505050505050505061105d930154169061147e565b5f808080808080808880f35b969795966002149081611161575b501561109857505050505050506002611093930154169061147e565b61105d565b60ff191660021790558689528390528720949550919391929160070186845b6110eb575b5050505050507f0715daac82f9b9aa17ddece2f059d6667b3fe54f36bcc4571221f96a00a5b5aa8280a261105d565b855481101561115c57836110fe826112ea565b905490851b1c168254600160401b81101561114957916111419161112a84898098979601865585611333565b888293925491881b92831b921b19161790556113d8565b9091926110b7565b634e487b7160e01b8a526041885260248afd5b6110bc565b90508160101c16868110156111785785145f611077565b634e487b7160e01b8c526021885260248cfd5b50818360101c16878110156111a257600214611043565b634e487b7160e01b8e526021895260248efd5b634e487b7160e01b8d526021885260248dfd5b60101c169050838110156111df571515885f611010565b634e487b7160e01b8a526021855260248afd5b634e487b7160e01b8b526021865260248bfd5b634e487b7160e01b8c526021875260248cfd5b600583019061120557805462ff00001916601083901b62ff00001617905560059190610fbd565b845162461bcd60e51b8152808801859052600e60248201526d125b9d985b1a59081c995cdd5b1d60921b6044820152606490fd5b50508a60028214610f89565b60029192500154163314875f610372565b60409060031901126112af576004359060243560038110156112af5790565b5f80fd5b9060038210156112c05752565b634e487b7160e01b5f52602160045260245ffd5b600435906001600160a01b03821682036112af57565b60045481101561131f5760045f527f8a35acfbc15ff81a39ae7d344fd709f28e8600b4aa8c65c6b64bfe7fe36bd19b01905f90565b634e487b7160e01b5f52603260045260245ffd5b805482101561131f575f5260205f2001905f90565b6001546001600160a01b0316330361135c57565b60405163118cdaa760e01b8152336004820152602490fd5b9190820180921161138157565b634e487b7160e01b5f52601160045260245ffd5b1561139c57565b60405162461bcd60e51b8152602060048201526014602482015273125b98dbdc9c9958dd081d985b1d59481cd95b9d60621b6044820152606490fd5b5f1981146113815760010190565b60025f54146113f55760025f55565b604051633ee5aeb560e01b8152600490fd5b1561140e57565b60405162461bcd60e51b815260206004820152600d60248201526c496e76616c696420737461746560981b6044820152606490fd5b1561144a57565b60405162461bcd60e51b815260206004820152600c60248201526b2737ba103090383630bcb2b960a11b6044820152606490fd5b5f8181526003602052604081209260058401600460ff1982541617905560038401548060011b90808204600214901517156115a2576004850154918260011b9183159284810460021484171561158e57816114dd86926114e394611374565b50611374565b60018701546001600160a01b03928316978691829182918291879182168d810361158557506002015416945b8b82821561157c575bf1156115715784938493849384938492611567575b1690f11561155b57807f1c560e9f349cd346794f9d534fb852628d58cc7a726d0adb57820fae0a50cd4791a3565b604051903d90823e3d90fd5b6108fc925061152d565b6040513d86823e3d90fd5b506108fc611518565b9150509461150f565b634e487b7160e01b86526011600452602486fd5b634e487b7160e01b83526011600452602483fd5b5f526003908160205260405f209160075f93018054935b8481106115dd5750505050505f90565b6115e78183611333565b905490841b1c6001600160a01b039081169085161461160e57611609906113d8565b6115cd565b5050505050600190565b5f81815260036020526040812060058101600460ff198254161790556003810154908160011b91808304600214901517156115a25760040154908160011b91808304600214901517156115a257828061167381948294611374565b6001600160a01b0390971696878282156116b4575bf11561155b57807f1c560e9f349cd346794f9d534fb852628d58cc7a726d0adb57820fae0a50cd4791a3565b506108fc61168856fea264697066735822122074fc6e07d0bd96cd93d4fce3f3da8f3bc0b8d03cbd7ab1b6ad4c9e325d3e0fb164736f6c63430008140033","linkReferences":{}},"methodIdentifiers":{"JURY_SIZE()":"afaec527","TIMEOUT_WINDOW()":"7ca23b94","addMockJuror(address)":"5a8fe26f","adminResolveDispute(uint256,address)":"89054ecb","claimTimeoutVictory(uint256)":"eff53a69","createMatch(uint256,uint256)":"f5a0ea6c","joinMatch(uint256)":"feb8c438","juryVote(uint256,uint8)":"1f7e507e","matchIdCounter()":"4fdc2fb4","matches(uint256)":"4768d4ef","mockJurors(uint256)":"8f52d9d4","owner()":"8da5cb5b","renounceOwnership()":"715018a6","submitResult(uint256,uint8)":"1318e27b","transferOwnership(address)":"f2fde38b","voteToCancel(uint256)":"1e01fc2f","withdrawPreMatch(uint256)":"8e9836b6"},"id":19}